{
  "_format": "hh-sol-artifact-1",
  "contractName": "Domains",
  "sourceName": "contracts/Domains.sol",
  "abi": [
    {
      "inputs": [
        {
          "internalType": "string",
          "name": "_tld",
          "type": "string"
        }
      ],
      "stateMutability": "payable",
      "type": "constructor"
    },
    {
      "anonymous": false,
      "inputs": [
        {
          "indexed": true,
          "internalType": "address",
          "name": "owner",
          "type": "address"
        },
        {
          "indexed": true,
          "internalType": "address",
          "name": "approved",
          "type": "address"
        },
        {
          "indexed": true,
          "internalType": "uint256",
          "name": "tokenId",
          "type": "uint256"
        }
      ],
      "name": "Approval",
      "type": "event"
    },
    {
      "anonymous": false,
      "inputs": [
        {
          "indexed": true,
          "internalType": "address",
          "name": "owner",
          "type": "address"
        },
        {
          "indexed": true,
          "internalType": "address",
          "name": "operator",
          "type": "address"
        },
        {
          "indexed": false,
          "internalType": "bool",
          "name": "approved",
          "type": "bool"
        }
      ],
      "name": "ApprovalForAll",
      "type": "event"
    },
    {
      "anonymous": false,
      "inputs": [
        {
          "indexed": true,
          "internalType": "address",
          "name": "from",
          "type": "address"
        },
        {
          "indexed": true,
          "internalType": "address",
          "name": "to",
          "type": "address"
        },
        {
          "indexed": true,
          "internalType": "uint256",
          "name": "tokenId",
          "type": "uint256"
        }
      ],
      "name": "Transfer",
      "type": "event"
    },
    {
      "inputs": [
        {
          "internalType": "address",
          "name": "to",
          "type": "address"
        },
        {
          "internalType": "uint256",
          "name": "tokenId",
          "type": "uint256"
        }
      ],
      "name": "approve",
      "outputs": [],
      "stateMutability": "nonpayable",
      "type": "function"
    },
    {
      "inputs": [
        {
          "internalType": "address",
          "name": "owner",
          "type": "address"
        }
      ],
      "name": "balanceOf",
      "outputs": [
        {
          "internalType": "uint256",
          "name": "",
          "type": "uint256"
        }
      ],
      "stateMutability": "view",
      "type": "function"
    },
    {
      "inputs": [
        {
          "internalType": "string",
          "name": "",
          "type": "string"
        }
      ],
      "name": "domains",
      "outputs": [
        {
          "internalType": "address",
          "name": "",
          "type": "address"
        }
      ],
      "stateMutability": "view",
      "type": "function"
    },
    {
      "inputs": [
        {
          "internalType": "string",
          "name": "name",
          "type": "string"
        }
      ],
      "name": "getAddress",
      "outputs": [
        {
          "internalType": "address",
          "name": "",
          "type": "address"
        }
      ],
      "stateMutability": "view",
      "type": "function"
    },
    {
      "inputs": [
        {
          "internalType": "uint256",
          "name": "tokenId",
          "type": "uint256"
        }
      ],
      "name": "getApproved",
      "outputs": [
        {
          "internalType": "address",
          "name": "",
          "type": "address"
        }
      ],
      "stateMutability": "view",
      "type": "function"
    },
    {
      "inputs": [
        {
          "internalType": "string",
          "name": "name",
          "type": "string"
        }
      ],
      "name": "getRecord",
      "outputs": [
        {
          "internalType": "string",
          "name": "",
          "type": "string"
        }
      ],
      "stateMutability": "view",
      "type": "function"
    },
    {
      "inputs": [
        {
          "internalType": "address",
          "name": "owner",
          "type": "address"
        },
        {
          "internalType": "address",
          "name": "operator",
          "type": "address"
        }
      ],
      "name": "isApprovedForAll",
      "outputs": [
        {
          "internalType": "bool",
          "name": "",
          "type": "bool"
        }
      ],
      "stateMutability": "view",
      "type": "function"
    },
    {
      "inputs": [],
      "name": "name",
      "outputs": [
        {
          "internalType": "string",
          "name": "",
          "type": "string"
        }
      ],
      "stateMutability": "view",
      "type": "function"
    },
    {
      "inputs": [
        {
          "internalType": "uint256",
          "name": "tokenId",
          "type": "uint256"
        }
      ],
      "name": "ownerOf",
      "outputs": [
        {
          "internalType": "address",
          "name": "",
          "type": "address"
        }
      ],
      "stateMutability": "view",
      "type": "function"
    },
    {
      "inputs": [
        {
          "internalType": "string",
          "name": "name",
          "type": "string"
        }
      ],
      "name": "price",
      "outputs": [
        {
          "internalType": "uint256",
          "name": "",
          "type": "uint256"
        }
      ],
      "stateMutability": "pure",
      "type": "function"
    },
    {
      "inputs": [
        {
          "internalType": "string",
          "name": "",
          "type": "string"
        }
      ],
      "name": "records",
      "outputs": [
        {
          "internalType": "string",
          "name": "",
          "type": "string"
        }
      ],
      "stateMutability": "view",
      "type": "function"
    },
    {
      "inputs": [
        {
          "internalType": "string",
          "name": "name",
          "type": "string"
        }
      ],
      "name": "register",
      "outputs": [],
      "stateMutability": "payable",
      "type": "function"
    },
    {
      "inputs": [
        {
          "internalType": "address",
          "name": "from",
          "type": "address"
        },
        {
          "internalType": "address",
          "name": "to",
          "type": "address"
        },
        {
          "internalType": "uint256",
          "name": "tokenId",
          "type": "uint256"
        }
      ],
      "name": "safeTransferFrom",
      "outputs": [],
      "stateMutability": "nonpayable",
      "type": "function"
    },
    {
      "inputs": [
        {
          "internalType": "address",
          "name": "from",
          "type": "address"
        },
        {
          "internalType": "address",
          "name": "to",
          "type": "address"
        },
        {
          "internalType": "uint256",
          "name": "tokenId",
          "type": "uint256"
        },
        {
          "internalType": "bytes",
          "name": "_data",
          "type": "bytes"
        }
      ],
      "name": "safeTransferFrom",
      "outputs": [],
      "stateMutability": "nonpayable",
      "type": "function"
    },
    {
      "inputs": [
        {
          "internalType": "address",
          "name": "operator",
          "type": "address"
        },
        {
          "internalType": "bool",
          "name": "approved",
          "type": "bool"
        }
      ],
      "name": "setApprovalForAll",
      "outputs": [],
      "stateMutability": "nonpayable",
      "type": "function"
    },
    {
      "inputs": [
        {
          "internalType": "string",
          "name": "name",
          "type": "string"
        },
        {
          "internalType": "string",
          "name": "record",
          "type": "string"
        }
      ],
      "name": "setRecord",
      "outputs": [],
      "stateMutability": "nonpayable",
      "type": "function"
    },
    {
      "inputs": [
        {
          "internalType": "bytes4",
          "name": "interfaceId",
          "type": "bytes4"
        }
      ],
      "name": "supportsInterface",
      "outputs": [
        {
          "internalType": "bool",
          "name": "",
          "type": "bool"
        }
      ],
      "stateMutability": "view",
      "type": "function"
    },
    {
      "inputs": [],
      "name": "symbol",
      "outputs": [
        {
          "internalType": "string",
          "name": "",
          "type": "string"
        }
      ],
      "stateMutability": "view",
      "type": "function"
    },
    {
      "inputs": [],
      "name": "tld",
      "outputs": [
        {
          "internalType": "string",
          "name": "",
          "type": "string"
        }
      ],
      "stateMutability": "view",
      "type": "function"
    },
    {
      "inputs": [
        {
          "internalType": "uint256",
          "name": "tokenId",
          "type": "uint256"
        }
      ],
      "name": "tokenURI",
      "outputs": [
        {
          "internalType": "string",
          "name": "",
          "type": "string"
        }
      ],
      "stateMutability": "view",
      "type": "function"
    },
    {
      "inputs": [
        {
          "internalType": "address",
          "name": "from",
          "type": "address"
        },
        {
          "internalType": "address",
          "name": "to",
          "type": "address"
        },
        {
          "internalType": "uint256",
          "name": "tokenId",
          "type": "uint256"
        }
      ],
      "name": "transferFrom",
      "outputs": [],
      "stateMutability": "nonpayable",
      "type": "function"
    }
  ],
  "bytecode": "0x6080604052604051806108a0016040528061086b815260200162004bbc61086b9139600b90805190602001906200003892919062000319565b506040518060400160405280600d81526020017f3c2f746578743e3c2f7376673e00000000000000000000000000000000000000815250600c90805190602001906200008692919062000319565b5060405162005427380380620054278339818101604052810190620000ac919062000566565b6040518060400160405280601481526020017f42616b63686f64204e616d6520536572766963650000000000000000000000008152506040518060400160405280600381526020017f424e53000000000000000000000000000000000000000000000000000000000081525081600090805190602001906200013092919062000319565b5080600190805190602001906200014992919062000319565b50505080600890805190602001906200016492919062000319565b50620002436040518060400160405280601881526020017f2573206e616d652073657276696365206465706c6f796564000000000000000081525060088054620001ae90620005e6565b80601f0160208091040260200160405190810160405280929190818152602001828054620001dc90620005e6565b80156200022d5780601f1062000201576101008083540402835291602001916200022d565b820191906000526020600020905b8154815290600101906020018083116200020f57829003601f168201915b50505050506200024a60201b620015a21760201c565b50620006b4565b620002ec82826040516024016200026392919062000679565b6040516020818303038152906040527f4b5c4277000000000000000000000000000000000000000000000000000000007bffffffffffffffffffffffffffffffffffffffffffffffffffffffff19166020820180517bffffffffffffffffffffffffffffffffffffffffffffffffffffffff8381831617835250505050620002f060201b60201c565b5050565b60008151905060006a636f6e736f6c652e6c6f679050602083016000808483855afa5050505050565b8280546200032790620005e6565b90600052602060002090601f0160209004810192826200034b576000855562000397565b82601f106200036657805160ff191683800117855562000397565b8280016001018555821562000397579182015b828111156200039657825182559160200191906001019062000379565b5b509050620003a69190620003aa565b5090565b5b80821115620003c5576000816000905550600101620003ab565b5090565b6000604051905090565b600080fd5b600080fd5b600080fd5b600080fd5b6000601f19601f8301169050919050565b7f4e487b7100000000000000000000000000000000000000000000000000000000600052604160045260246000fd5b6200043282620003e7565b810181811067ffffffffffffffff82111715620004545762000453620003f8565b5b80604052505050565b600062000469620003c9565b905062000477828262000427565b919050565b600067ffffffffffffffff8211156200049a5762000499620003f8565b5b620004a582620003e7565b9050602081019050919050565b60005b83811015620004d2578082015181840152602081019050620004b5565b83811115620004e2576000848401525b50505050565b6000620004ff620004f9846200047c565b6200045d565b9050828152602081018484840111156200051e576200051d620003e2565b5b6200052b848285620004b2565b509392505050565b600082601f8301126200054b576200054a620003dd565b5b81516200055d848260208601620004e8565b91505092915050565b6000602082840312156200057f576200057e620003d3565b5b600082015167ffffffffffffffff811115620005a0576200059f620003d8565b5b620005ae8482850162000533565b91505092915050565b7f4e487b7100000000000000000000000000000000000000000000000000000000600052602260045260246000fd5b60006002820490506001821680620005ff57607f821691505b60208210811415620006165762000615620005b7565b5b50919050565b600081519050919050565b600082825260208201905092915050565b600062000645826200061c565b62000651818562000627565b935062000663818560208601620004b2565b6200066e81620003e7565b840191505092915050565b6000604082019050818103600083015262000695818562000638565b90508181036020830152620006ab818462000638565b90509392505050565b6144f880620006c46000396000f3fe60806040526004361061012a5760003560e01c80636352211e116100ab578063bf40fac11161006f578063bf40fac114610428578063c1880a9814610465578063c87b56dd1461048e578063e985e9c5146104cb578063f2c298be14610508578063fe2c6198146105245761012a565b80636352211e1461033157806370a082311461036e57806395d89b41146103ab578063a22cb465146103d6578063b88d4fde146103ff5761012a565b806323b872dd116100f257806323b872dd1461023a57806326449235146102635780632d551432146102a057806342842e0e146102cb578063541e771d146102f45761012a565b806301ffc9a71461012f57806306fdde031461016c578063081812fc14610197578063095ea7b3146101d457806311dd8845146101fd575b600080fd5b34801561013b57600080fd5b5061015660048036038101906101519190612a84565b610561565b6040516101639190612acc565b60405180910390f35b34801561017857600080fd5b50610181610643565b60405161018e9190612b80565b60405180910390f35b3480156101a357600080fd5b506101be60048036038101906101b99190612bd8565b6106d5565b6040516101cb9190612c46565b60405180910390f35b3480156101e057600080fd5b506101fb60048036038101906101f69190612c8d565b61075a565b005b34801561020957600080fd5b50610224600480360381019061021f9190612d32565b610872565b6040516102319190612b80565b60405180910390f35b34801561024657600080fd5b50610261600480360381019061025c9190612d7f565b610925565b005b34801561026f57600080fd5b5061028a60048036038101906102859190612f02565b610985565b6040516102979190612c46565b60405180910390f35b3480156102ac57600080fd5b506102b56109ce565b6040516102c29190612b80565b60405180910390f35b3480156102d757600080fd5b506102f260048036038101906102ed9190612d7f565b610a5c565b005b34801561030057600080fd5b5061031b60048036038101906103169190612f02565b610a7c565b6040516103289190612b80565b60405180910390f35b34801561033d57600080fd5b5061035860048036038101906103539190612bd8565b610b32565b6040516103659190612c46565b60405180910390f35b34801561037a57600080fd5b5061039560048036038101906103909190612f4b565b610be4565b6040516103a29190612f87565b60405180910390f35b3480156103b757600080fd5b506103c0610c9c565b6040516103cd9190612b80565b60405180910390f35b3480156103e257600080fd5b506103fd60048036038101906103f89190612fce565b610d2e565b005b34801561040b57600080fd5b50610426600480360381019061042191906130af565b610d44565b005b34801561043457600080fd5b5061044f600480360381019061044a9190612d32565b610da6565b60405161045c9190612c46565b60405180910390f35b34801561047157600080fd5b5061048c60048036038101906104879190613132565b610df1565b005b34801561049a57600080fd5b506104b560048036038101906104b09190612bd8565b610f06565b6040516104c29190612b80565b60405180910390f35b3480156104d757600080fd5b506104f260048036038101906104ed91906131b3565b611058565b6040516104ff9190612acc565b60405180910390f35b610522600480360381019061051d9190612d32565b6110ec565b005b34801561053057600080fd5b5061054b60048036038101906105469190612d32565b6114c6565b6040516105589190612f87565b60405180910390f35b60007f80ac58cd000000000000000000000000000000000000000000000000000000007bffffffffffffffffffffffffffffffffffffffffffffffffffffffff1916827bffffffffffffffffffffffffffffffffffffffffffffffffffffffff1916148061062c57507f5b5e139f000000000000000000000000000000000000000000000000000000007bffffffffffffffffffffffffffffffffffffffffffffffffffffffff1916827bffffffffffffffffffffffffffffffffffffffffffffffffffffffff1916145b8061063c575061063b8261163e565b5b9050919050565b60606000805461065290613222565b80601f016020809104026020016040519081016040528092919081815260200182805461067e90613222565b80156106cb5780601f106106a0576101008083540402835291602001916106cb565b820191906000526020600020905b8154815290600101906020018083116106ae57829003601f168201915b5050505050905090565b60006106e0826116a8565b61071f576040517f08c379a0000000000000000000000000000000000000000000000000000000008152600401610716906132c6565b60405180910390fd5b6004600083815260200190815260200160002060009054906101000a900473ffffffffffffffffffffffffffffffffffffffff169050919050565b600061076582610b32565b90508073ffffffffffffffffffffffffffffffffffffffff168373ffffffffffffffffffffffffffffffffffffffff1614156107d6576040517f08c379a00000000000000000000000000000000000000000000000000000000081526004016107cd90613358565b60405180910390fd5b8073ffffffffffffffffffffffffffffffffffffffff166107f5611714565b73ffffffffffffffffffffffffffffffffffffffff16148061082457506108238161081e611714565b611058565b5b610863576040517f08c379a000000000000000000000000000000000000000000000000000000000815260040161085a906133ea565b60405180910390fd5b61086d838361171c565b505050565b6060600a838360405161088692919061343a565b9081526020016040518091039020805461089f90613222565b80601f01602080910402602001604051908101604052809291908181526020018280546108cb90613222565b80156109185780601f106108ed57610100808354040283529160200191610918565b820191906000526020600020905b8154815290600101906020018083116108fb57829003601f168201915b5050505050905092915050565b610936610930611714565b826117d5565b610975576040517f08c379a000000000000000000000000000000000000000000000000000000000815260040161096c906134c5565b60405180910390fd5b6109808383836118b3565b505050565b6009818051602081018201805184825260208301602085012081835280955050505050506000915054906101000a900473ffffffffffffffffffffffffffffffffffffffff1681565b600880546109db90613222565b80601f0160208091040260200160405190810160405280929190818152602001828054610a0790613222565b8015610a545780601f10610a2957610100808354040283529160200191610a54565b820191906000526020600020905b815481529060010190602001808311610a3757829003601f168201915b505050505081565b610a7783838360405180602001604052806000815250610d44565b505050565b600a818051602081018201805184825260208301602085012081835280955050505050506000915090508054610ab190613222565b80601f0160208091040260200160405190810160405280929190818152602001828054610add90613222565b8015610b2a5780601f10610aff57610100808354040283529160200191610b2a565b820191906000526020600020905b815481529060010190602001808311610b0d57829003601f168201915b505050505081565b6000806002600084815260200190815260200160002060009054906101000a900473ffffffffffffffffffffffffffffffffffffffff169050600073ffffffffffffffffffffffffffffffffffffffff168173ffffffffffffffffffffffffffffffffffffffff161415610bdb576040517f08c379a0000000000000000000000000000000000000000000000000000000008152600401610bd290613557565b60405180910390fd5b80915050919050565b60008073ffffffffffffffffffffffffffffffffffffffff168273ffffffffffffffffffffffffffffffffffffffff161415610c55576040517f08c379a0000000000000000000000000000000000000000000000000000000008152600401610c4c906135e9565b60405180910390fd5b600360008373ffffffffffffffffffffffffffffffffffffffff1673ffffffffffffffffffffffffffffffffffffffff168152602001908152602001600020549050919050565b606060018054610cab90613222565b80601f0160208091040260200160405190810160405280929190818152602001828054610cd790613222565b8015610d245780601f10610cf957610100808354040283529160200191610d24565b820191906000526020600020905b815481529060010190602001808311610d0757829003601f168201915b5050505050905090565b610d40610d39611714565b8383611b1a565b5050565b610d55610d4f611714565b836117d5565b610d94576040517f08c379a0000000000000000000000000000000000000000000000000000000008152600401610d8b906134c5565b60405180910390fd5b610da084848484611c87565b50505050565b600060098383604051610dba92919061343a565b908152602001604051809103902060009054906101000a900473ffffffffffffffffffffffffffffffffffffffff16905092915050565b3373ffffffffffffffffffffffffffffffffffffffff1660098585604051610e1a92919061343a565b908152602001604051809103902060009054906101000a900473ffffffffffffffffffffffffffffffffffffffff1673ffffffffffffffffffffffffffffffffffffffff1614610e6957600080fd5b8181600a8686604051610e7d92919061343a565b90815260200160405180910390209190610e989291906128ef565b50610f006040518060600160405280602181526020016143c2602191393386868080601f016020809104026020016040519081016040528093929190818152602001838380828437600081840152601f19601f82011690508083019250505050505050611ce3565b50505050565b6060610f11826116a8565b610f50576040517f08c379a0000000000000000000000000000000000000000000000000000000008152600401610f479061367b565b60405180910390fd5b6000600660008481526020019081526020016000208054610f7090613222565b80601f0160208091040260200160405190810160405280929190818152602001828054610f9c90613222565b8015610fe95780601f10610fbe57610100808354040283529160200191610fe9565b820191906000526020600020905b815481529060010190602001808311610fcc57829003601f168201915b505050505090506000610ffa611d82565b9050600081511415611010578192505050611053565b60008251111561104557808260405160200161102d9291906136cc565b60405160208183030381529060405292505050611053565b61104e84611d99565b925050505b919050565b6000600560008473ffffffffffffffffffffffffffffffffffffffff1673ffffffffffffffffffffffffffffffffffffffff16815260200190815260200160002060008373ffffffffffffffffffffffffffffffffffffffff1673ffffffffffffffffffffffffffffffffffffffff16815260200190815260200160002060009054906101000a900460ff16905092915050565b600073ffffffffffffffffffffffffffffffffffffffff166009838360405161111692919061343a565b908152602001604051809103902060009054906101000a900473ffffffffffffffffffffffffffffffffffffffff1673ffffffffffffffffffffffffffffffffffffffff161461116557600080fd5b600061117183836114c6565b9050803410156111b6576040517f08c379a00000000000000000000000000000000000000000000000000000000081526004016111ad9061373c565b60405180910390fd5b6000838360086040516020016111ce9392919061383c565b60405160208183030381529060405290506000600b82600c6040516020016111f89392919061386d565b604051602081830303815290604052905060006112156007611e40565b9050600061126687878080601f016020809104026020016040519081016040528093929190818152602001838380828437600081840152601f19601f82011690508083019250505050505050611e4e565b9050600061127382612003565b90506112dc6040518060600160405280602e8152602001614495602e913989898080601f016020809104026020016040519081016040528093929190818152602001838380828437600081840152601f19601f8201169050808301925050505050505085612164565b6000611312866112eb87612203565b846040516020016112fe93929190613a1a565b604051602081830303815290604052612203565b90506000816040516020016113279190613ac3565b60405160208183030381529060405290506113596040518060600160405280603981526020016143e36039913961239b565b6113986040518060400160405280600e81526020017f46696e616c20746f6b656e555249000000000000000000000000000000000000815250826115a2565b6113b960405180606001604052806039815260200161441c6039913961239b565b6113c33386612434565b6113cd8582612452565b3360098b8b6040516113e092919061343a565b908152602001604051809103902060006101000a81548173ffffffffffffffffffffffffffffffffffffffff021916908373ffffffffffffffffffffffffffffffffffffffff16021790555061143660076124c6565b6114ba6040518060400160405280601d81526020017f2573206861732072656769737465726564202225732220646f6d61696e000000815250338c8c8080601f016020809104026020016040519081016040528093929190818152602001838380828437600081840152601f19601f82011690508083019250505050505050611ce3565b50505050505050505050565b60008061151684848080601f016020809104026020016040519081016040528093929190818152602001838380828437600081840152601f19601f82011690508083019250505050505050611e4e565b90506000811161155b576040517f08c379a000000000000000000000000000000000000000000000000000000000815260040161155290613b31565b60405180910390fd5b6003811415611575576706f05b59d3b2000091505061159c565b600481141561158f57670429d069189e000091505061159c565b67016345785d8a00009150505b92915050565b61163a82826040516024016115b8929190613b51565b6040516020818303038152906040527f4b5c4277000000000000000000000000000000000000000000000000000000007bffffffffffffffffffffffffffffffffffffffffffffffffffffffff19166020820180517bffffffffffffffffffffffffffffffffffffffffffffffffffffffff83818316178352505050506124dc565b5050565b60007f01ffc9a7000000000000000000000000000000000000000000000000000000007bffffffffffffffffffffffffffffffffffffffffffffffffffffffff1916827bffffffffffffffffffffffffffffffffffffffffffffffffffffffff1916149050919050565b60008073ffffffffffffffffffffffffffffffffffffffff166002600084815260200190815260200160002060009054906101000a900473ffffffffffffffffffffffffffffffffffffffff1673ffffffffffffffffffffffffffffffffffffffff1614159050919050565b600033905090565b816004600083815260200190815260200160002060006101000a81548173ffffffffffffffffffffffffffffffffffffffff021916908373ffffffffffffffffffffffffffffffffffffffff160217905550808273ffffffffffffffffffffffffffffffffffffffff1661178f83610b32565b73ffffffffffffffffffffffffffffffffffffffff167f8c5be1e5ebec7d5bd14f71427d1e84f3dd0314c0f7b2291e5b200ac8c7c3b92560405160405180910390a45050565b60006117e0826116a8565b61181f576040517f08c379a000000000000000000000000000000000000000000000000000000000815260040161181690613bfa565b60405180910390fd5b600061182a83610b32565b90508073ffffffffffffffffffffffffffffffffffffffff168473ffffffffffffffffffffffffffffffffffffffff16148061189957508373ffffffffffffffffffffffffffffffffffffffff16611881846106d5565b73ffffffffffffffffffffffffffffffffffffffff16145b806118aa57506118a98185611058565b5b91505092915050565b8273ffffffffffffffffffffffffffffffffffffffff166118d382610b32565b73ffffffffffffffffffffffffffffffffffffffff1614611929576040517f08c379a000000000000000000000000000000000000000000000000000000000815260040161192090613c8c565b60405180910390fd5b600073ffffffffffffffffffffffffffffffffffffffff168273ffffffffffffffffffffffffffffffffffffffff161415611999576040517f08c379a000000000000000000000000000000000000000000000000000000000815260040161199090613d1e565b60405180910390fd5b6119a4838383612505565b6119af60008261171c565b6001600360008573ffffffffffffffffffffffffffffffffffffffff1673ffffffffffffffffffffffffffffffffffffffff16815260200190815260200160002060008282546119ff9190613d6d565b925050819055506001600360008473ffffffffffffffffffffffffffffffffffffffff1673ffffffffffffffffffffffffffffffffffffffff1681526020019081526020016000206000828254611a569190613da1565b92505081905550816002600083815260200190815260200160002060006101000a81548173ffffffffffffffffffffffffffffffffffffffff021916908373ffffffffffffffffffffffffffffffffffffffff160217905550808273ffffffffffffffffffffffffffffffffffffffff168473ffffffffffffffffffffffffffffffffffffffff167fddf252ad1be2c89b69c2b068fc378daa952ba7f163c4a11628f55a4df523b3ef60405160405180910390a4611b1583838361250a565b505050565b8173ffffffffffffffffffffffffffffffffffffffff168373ffffffffffffffffffffffffffffffffffffffff161415611b89576040517f08c379a0000000000000000000000000000000000000000000000000000000008152600401611b8090613e43565b60405180910390fd5b80600560008573ffffffffffffffffffffffffffffffffffffffff1673ffffffffffffffffffffffffffffffffffffffff16815260200190815260200160002060008473ffffffffffffffffffffffffffffffffffffffff1673ffffffffffffffffffffffffffffffffffffffff16815260200190815260200160002060006101000a81548160ff0219169083151502179055508173ffffffffffffffffffffffffffffffffffffffff168373ffffffffffffffffffffffffffffffffffffffff167f17307eab39ab6107e8899845ad3d59bd9653f200f220920489ca2b5937696c3183604051611c7a9190612acc565b60405180910390a3505050565b611c928484846118b3565b611c9e8484848461250f565b611cdd576040517f08c379a0000000000000000000000000000000000000000000000000000000008152600401611cd490613ed5565b60405180910390fd5b50505050565b611d7d838383604051602401611cfb93929190613ef5565b6040516020818303038152906040527fe0e9ad4f000000000000000000000000000000000000000000000000000000007bffffffffffffffffffffffffffffffffffffffffffffffffffffffff19166020820180517bffffffffffffffffffffffffffffffffffffffffffffffffffffffff83818316178352505050506124dc565b505050565b606060405180602001604052806000815250905090565b6060611da4826116a8565b611de3576040517f08c379a0000000000000000000000000000000000000000000000000000000008152600401611dda90613fac565b60405180910390fd5b6000611ded611d82565b90506000815111611e0d5760405180602001604052806000815250611e38565b80611e1784612003565b604051602001611e289291906136cc565b6040516020818303038152906040525b915050919050565b600081600001549050919050565b60008060008084519050600092505b80821015611ff8576000858381518110611e7a57611e79613fcc565b5b602001015160f81c60f81b9050608060f81b817effffffffffffffffffffffffffffffffffffffffffffffffffffffffffffff19161015611ec957600183611ec29190613da1565b9250611fe4565b60e060f81b817effffffffffffffffffffffffffffffffffffffffffffffffffffffffffffff19161015611f0b57600283611f049190613da1565b9250611fe3565b60f060f81b817effffffffffffffffffffffffffffffffffffffffffffffffffffffffffffff19161015611f4d57600383611f469190613da1565b9250611fe2565b60f8801b817effffffffffffffffffffffffffffffffffffffffffffffffffffffffffffff19161015611f8e57600483611f879190613da1565b9250611fe1565b60fc60f81b817effffffffffffffffffffffffffffffffffffffffffffffffffffffffffffff19161015611fd057600583611fc99190613da1565b9250611fe0565b600683611fdd9190613da1565b92505b5b5b5b5b508280611ff090613ffb565b935050611e5d565b829350505050919050565b6060600082141561204b576040518060400160405280600181526020017f3000000000000000000000000000000000000000000000000000000000000000815250905061215f565b600082905060005b6000821461207d57808061206690613ffb565b915050600a826120769190614073565b9150612053565b60008167ffffffffffffffff81111561209957612098612dd7565b5b6040519080825280601f01601f1916602001820160405280156120cb5781602001600182028036833780820191505090505b5090505b60008514612158576001826120e49190613d6d565b9150600a856120f391906140a4565b60306120ff9190613da1565b60f81b81838151811061211557612114613fcc565b5b60200101907effffffffffffffffffffffffffffffffffffffffffffffffffffffffffffff1916908160001a905350600a856121519190614073565b94506120cf565b8093505050505b919050565b6121fe83838360405160240161217c939291906140d5565b6040516020818303038152906040527ff362ca59000000000000000000000000000000000000000000000000000000007bffffffffffffffffffffffffffffffffffffffffffffffffffffffff19166020820180517bffffffffffffffffffffffffffffffffffffffffffffffffffffffff83818316178352505050506124dc565b505050565b6060600082519050600081141561222c5760405180602001604052806000815250915050612396565b6000600360028361223d9190613da1565b6122479190614073565b6004612253919061411a565b905060006020826122649190613da1565b67ffffffffffffffff81111561227d5761227c612dd7565b5b6040519080825280601f01601f1916602001820160405280156122af5781602001600182028036833780820191505090505b5090506000604051806060016040528060408152602001614455604091399050600181016020830160005b868110156123535760038101905062ffffff818a015116603f8160121c168401518060081b905060ff603f83600c1c1686015116810190508060081b905060ff603f8360061c1686015116810190508060081b905060ff603f831686015116810190508060e01b905080845260048401935050506122da565b50600386066001811461236d576002811461237d57612388565b613d3d60f01b6002830352612388565b603d60f81b60018303525b508484525050819450505050505b919050565b612431816040516024016123af9190612b80565b6040516020818303038152906040527f41304fac000000000000000000000000000000000000000000000000000000007bffffffffffffffffffffffffffffffffffffffffffffffffffffffff19166020820180517bffffffffffffffffffffffffffffffffffffffffffffffffffffffff83818316178352505050506124dc565b50565b61244e828260405180602001604052806000815250612697565b5050565b61245b826116a8565b61249a576040517f08c379a0000000000000000000000000000000000000000000000000000000008152600401612491906141e6565b60405180910390fd5b806006600084815260200190815260200160002090805190602001906124c1929190612975565b505050565b6001816000016000828254019250508190555050565b60008151905060006a636f6e736f6c652e6c6f679050602083016000808483855afa5050505050565b505050565b505050565b60006125308473ffffffffffffffffffffffffffffffffffffffff166126f2565b1561268a578373ffffffffffffffffffffffffffffffffffffffff1663150b7a02612559611714565b8786866040518563ffffffff1660e01b815260040161257b949392919061425b565b6020604051808303816000875af19250505080156125b757506040513d601f19601f820116820180604052508101906125b491906142bc565b60015b61263a573d80600081146125e7576040519150601f19603f3d011682016040523d82523d6000602084013e6125ec565b606091505b50600081511415612632576040517f08c379a000000000000000000000000000000000000000000000000000000000815260040161262990613ed5565b60405180910390fd5b805181602001fd5b63150b7a0260e01b7bffffffffffffffffffffffffffffffffffffffffffffffffffffffff1916817bffffffffffffffffffffffffffffffffffffffffffffffffffffffff19161491505061268f565b600190505b949350505050565b6126a18383612715565b6126ae600084848461250f565b6126ed576040517f08c379a00000000000000000000000000000000000000000000000000000000081526004016126e490613ed5565b60405180910390fd5b505050565b6000808273ffffffffffffffffffffffffffffffffffffffff163b119050919050565b600073ffffffffffffffffffffffffffffffffffffffff168273ffffffffffffffffffffffffffffffffffffffff161415612785576040517f08c379a000000000000000000000000000000000000000000000000000000000815260040161277c90614335565b60405180910390fd5b61278e816116a8565b156127ce576040517f08c379a00000000000000000000000000000000000000000000000000000000081526004016127c5906143a1565b60405180910390fd5b6127da60008383612505565b6001600360008473ffffffffffffffffffffffffffffffffffffffff1673ffffffffffffffffffffffffffffffffffffffff168152602001908152602001600020600082825461282a9190613da1565b92505081905550816002600083815260200190815260200160002060006101000a81548173ffffffffffffffffffffffffffffffffffffffff021916908373ffffffffffffffffffffffffffffffffffffffff160217905550808273ffffffffffffffffffffffffffffffffffffffff16600073ffffffffffffffffffffffffffffffffffffffff167fddf252ad1be2c89b69c2b068fc378daa952ba7f163c4a11628f55a4df523b3ef60405160405180910390a46128eb6000838361250a565b5050565b8280546128fb90613222565b90600052602060002090601f01602090048101928261291d5760008555612964565b82601f1061293657803560ff1916838001178555612964565b82800160010185558215612964579182015b82811115612963578235825591602001919060010190612948565b5b50905061297191906129fb565b5090565b82805461298190613222565b90600052602060002090601f0160209004810192826129a357600085556129ea565b82601f106129bc57805160ff19168380011785556129ea565b828001600101855582156129ea579182015b828111156129e95782518255916020019190600101906129ce565b5b5090506129f791906129fb565b5090565b5b80821115612a145760008160009055506001016129fc565b5090565b6000604051905090565b600080fd5b600080fd5b60007fffffffff0000000000000000000000000000000000000000000000000000000082169050919050565b612a6181612a2c565b8114612a6c57600080fd5b50565b600081359050612a7e81612a58565b92915050565b600060208284031215612a9a57612a99612a22565b5b6000612aa884828501612a6f565b91505092915050565b60008115159050919050565b612ac681612ab1565b82525050565b6000602082019050612ae16000830184612abd565b92915050565b600081519050919050565b600082825260208201905092915050565b60005b83811015612b21578082015181840152602081019050612b06565b83811115612b30576000848401525b50505050565b6000601f19601f8301169050919050565b6000612b5282612ae7565b612b5c8185612af2565b9350612b6c818560208601612b03565b612b7581612b36565b840191505092915050565b60006020820190508181036000830152612b9a8184612b47565b905092915050565b6000819050919050565b612bb581612ba2565b8114612bc057600080fd5b50565b600081359050612bd281612bac565b92915050565b600060208284031215612bee57612bed612a22565b5b6000612bfc84828501612bc3565b91505092915050565b600073ffffffffffffffffffffffffffffffffffffffff82169050919050565b6000612c3082612c05565b9050919050565b612c4081612c25565b82525050565b6000602082019050612c5b6000830184612c37565b92915050565b612c6a81612c25565b8114612c7557600080fd5b50565b600081359050612c8781612c61565b92915050565b60008060408385031215612ca457612ca3612a22565b5b6000612cb285828601612c78565b9250506020612cc385828601612bc3565b9150509250929050565b600080fd5b600080fd5b600080fd5b60008083601f840112612cf257612cf1612ccd565b5b8235905067ffffffffffffffff811115612d0f57612d0e612cd2565b5b602083019150836001820283011115612d2b57612d2a612cd7565b5b9250929050565b60008060208385031215612d4957612d48612a22565b5b600083013567ffffffffffffffff811115612d6757612d66612a27565b5b612d7385828601612cdc565b92509250509250929050565b600080600060608486031215612d9857612d97612a22565b5b6000612da686828701612c78565b9350506020612db786828701612c78565b9250506040612dc886828701612bc3565b9150509250925092565b600080fd5b7f4e487b7100000000000000000000000000000000000000000000000000000000600052604160045260246000fd5b612e0f82612b36565b810181811067ffffffffffffffff82111715612e2e57612e2d612dd7565b5b80604052505050565b6000612e41612a18565b9050612e4d8282612e06565b919050565b600067ffffffffffffffff821115612e6d57612e6c612dd7565b5b612e7682612b36565b9050602081019050919050565b82818337600083830152505050565b6000612ea5612ea084612e52565b612e37565b905082815260208101848484011115612ec157612ec0612dd2565b5b612ecc848285612e83565b509392505050565b600082601f830112612ee957612ee8612ccd565b5b8135612ef9848260208601612e92565b91505092915050565b600060208284031215612f1857612f17612a22565b5b600082013567ffffffffffffffff811115612f3657612f35612a27565b5b612f4284828501612ed4565b91505092915050565b600060208284031215612f6157612f60612a22565b5b6000612f6f84828501612c78565b91505092915050565b612f8181612ba2565b82525050565b6000602082019050612f9c6000830184612f78565b92915050565b612fab81612ab1565b8114612fb657600080fd5b50565b600081359050612fc881612fa2565b92915050565b60008060408385031215612fe557612fe4612a22565b5b6000612ff385828601612c78565b925050602061300485828601612fb9565b9150509250929050565b600067ffffffffffffffff82111561302957613028612dd7565b5b61303282612b36565b9050602081019050919050565b600061305261304d8461300e565b612e37565b90508281526020810184848401111561306e5761306d612dd2565b5b613079848285612e83565b509392505050565b600082601f83011261309657613095612ccd565b5b81356130a684826020860161303f565b91505092915050565b600080600080608085870312156130c9576130c8612a22565b5b60006130d787828801612c78565b94505060206130e887828801612c78565b93505060406130f987828801612bc3565b925050606085013567ffffffffffffffff81111561311a57613119612a27565b5b61312687828801613081565b91505092959194509250565b6000806000806040858703121561314c5761314b612a22565b5b600085013567ffffffffffffffff81111561316a57613169612a27565b5b61317687828801612cdc565b9450945050602085013567ffffffffffffffff81111561319957613198612a27565b5b6131a587828801612cdc565b925092505092959194509250565b600080604083850312156131ca576131c9612a22565b5b60006131d885828601612c78565b92505060206131e985828601612c78565b9150509250929050565b7f4e487b7100000000000000000000000000000000000000000000000000000000600052602260045260246000fd5b6000600282049050600182168061323a57607f821691505b6020821081141561324e5761324d6131f3565b5b50919050565b7f4552433732313a20617070726f76656420717565727920666f72206e6f6e657860008201527f697374656e7420746f6b656e0000000000000000000000000000000000000000602082015250565b60006132b0602c83612af2565b91506132bb82613254565b604082019050919050565b600060208201905081810360008301526132df816132a3565b9050919050565b7f4552433732313a20617070726f76616c20746f2063757272656e74206f776e6560008201527f7200000000000000000000000000000000000000000000000000000000000000602082015250565b6000613342602183612af2565b915061334d826132e6565b604082019050919050565b6000602082019050818103600083015261337181613335565b9050919050565b7f4552433732313a20617070726f76652063616c6c6572206973206e6f74206f7760008201527f6e6572206e6f7220617070726f76656420666f7220616c6c0000000000000000602082015250565b60006133d4603883612af2565b91506133df82613378565b604082019050919050565b60006020820190508181036000830152613403816133c7565b9050919050565b600081905092915050565b6000613421838561340a565b935061342e838584612e83565b82840190509392505050565b6000613447828486613415565b91508190509392505050565b7f4552433732313a207472616e736665722063616c6c6572206973206e6f74206f60008201527f776e6572206e6f7220617070726f766564000000000000000000000000000000602082015250565b60006134af603183612af2565b91506134ba82613453565b604082019050919050565b600060208201905081810360008301526134de816134a2565b9050919050565b7f4552433732313a206f776e657220717565727920666f72206e6f6e657869737460008201527f656e7420746f6b656e0000000000000000000000000000000000000000000000602082015250565b6000613541602983612af2565b915061354c826134e5565b604082019050919050565b6000602082019050818103600083015261357081613534565b9050919050565b7f4552433732313a2062616c616e636520717565727920666f7220746865207a6560008201527f726f206164647265737300000000000000000000000000000000000000000000602082015250565b60006135d3602a83612af2565b91506135de82613577565b604082019050919050565b60006020820190508181036000830152613602816135c6565b9050919050565b7f45524337323155524953746f726167653a2055524920717565727920666f722060008201527f6e6f6e6578697374656e7420746f6b656e000000000000000000000000000000602082015250565b6000613665603183612af2565b915061367082613609565b604082019050919050565b6000602082019050818103600083015261369481613658565b9050919050565b60006136a682612ae7565b6136b0818561340a565b93506136c0818560208601612b03565b80840191505092915050565b60006136d8828561369b565b91506136e4828461369b565b91508190509392505050565b7f6e6f7420656e6f756768204d4154494320706169640000000000000000000000600082015250565b6000613726601583612af2565b9150613731826136f0565b602082019050919050565b6000602082019050818103600083015261375581613719565b9050919050565b7f2e00000000000000000000000000000000000000000000000000000000000000600082015250565b600061379260018361340a565b915061379d8261375c565b600182019050919050565b60008190508160005260206000209050919050565b600081546137ca81613222565b6137d4818661340a565b945060018216600081146137ef576001811461380057613833565b60ff19831686528186019350613833565b613809856137a8565b60005b8381101561382b5781548189015260018201915060208101905061380c565b838801955050505b50505092915050565b6000613849828587613415565b915061385482613785565b915061386082846137bd565b9150819050949350505050565b600061387982866137bd565b9150613885828561369b565b915061389182846137bd565b9150819050949350505050565b7f7b226e616d65223a202200000000000000000000000000000000000000000000600082015250565b60006138d4600a8361340a565b91506138df8261389e565b600a82019050919050565b7f222c20226465736372697074696f6e223a20224120646f6d61696e206f6e207460008201527f68652042616b63686f64204e616d652053657276696365222c2022696d61676560208201527f223a2022646174613a696d6167652f7376672b786d6c3b6261736536342c0000604082015250565b600061396c605e8361340a565b9150613977826138ea565b605e82019050919050565b7f222c226c656e677468223a220000000000000000000000000000000000000000600082015250565b60006139b8600c8361340a565b91506139c382613982565b600c82019050919050565b7f227d000000000000000000000000000000000000000000000000000000000000600082015250565b6000613a0460028361340a565b9150613a0f826139ce565b600282019050919050565b6000613a25826138c7565b9150613a31828661369b565b9150613a3c8261395f565b9150613a48828561369b565b9150613a53826139ab565b9150613a5f828461369b565b9150613a6a826139f7565b9150819050949350505050565b7f646174613a6170706c69636174696f6e2f6a736f6e3b6261736536342c000000600082015250565b6000613aad601d8361340a565b9150613ab882613a77565b601d82019050919050565b6000613ace82613aa0565b9150613ada828461369b565b915081905092915050565b7f6e616d65206d757374206265206e6f6e2d656d70747900000000000000000000600082015250565b6000613b1b601683612af2565b9150613b2682613ae5565b602082019050919050565b60006020820190508181036000830152613b4a81613b0e565b9050919050565b60006040820190508181036000830152613b6b8185612b47565b90508181036020830152613b7f8184612b47565b90509392505050565b7f4552433732313a206f70657261746f7220717565727920666f72206e6f6e657860008201527f697374656e7420746f6b656e0000000000000000000000000000000000000000602082015250565b6000613be4602c83612af2565b9150613bef82613b88565b604082019050919050565b60006020820190508181036000830152613c1381613bd7565b9050919050565b7f4552433732313a207472616e736665722066726f6d20696e636f72726563742060008201527f6f776e6572000000000000000000000000000000000000000000000000000000602082015250565b6000613c76602583612af2565b9150613c8182613c1a565b604082019050919050565b60006020820190508181036000830152613ca581613c69565b9050919050565b7f4552433732313a207472616e7366657220746f20746865207a65726f2061646460008201527f7265737300000000000000000000000000000000000000000000000000000000602082015250565b6000613d08602483612af2565b9150613d1382613cac565b604082019050919050565b60006020820190508181036000830152613d3781613cfb565b9050919050565b7f4e487b7100000000000000000000000000000000000000000000000000000000600052601160045260246000fd5b6000613d7882612ba2565b9150613d8383612ba2565b925082821015613d9657613d95613d3e565b5b828203905092915050565b6000613dac82612ba2565b9150613db783612ba2565b9250827fffffffffffffffffffffffffffffffffffffffffffffffffffffffffffffffff03821115613dec57613deb613d3e565b5b828201905092915050565b7f4552433732313a20617070726f766520746f2063616c6c657200000000000000600082015250565b6000613e2d601983612af2565b9150613e3882613df7565b602082019050919050565b60006020820190508181036000830152613e5c81613e20565b9050919050565b7f4552433732313a207472616e7366657220746f206e6f6e20455243373231526560008201527f63656976657220696d706c656d656e7465720000000000000000000000000000602082015250565b6000613ebf603283612af2565b9150613eca82613e63565b604082019050919050565b60006020820190508181036000830152613eee81613eb2565b9050919050565b60006060820190508181036000830152613f0f8186612b47565b9050613f1e6020830185612c37565b8181036040830152613f308184612b47565b9050949350505050565b7f4552433732314d657461646174613a2055524920717565727920666f72206e6f60008201527f6e6578697374656e7420746f6b656e0000000000000000000000000000000000602082015250565b6000613f96602f83612af2565b9150613fa182613f3a565b604082019050919050565b60006020820190508181036000830152613fc581613f89565b9050919050565b7f4e487b7100000000000000000000000000000000000000000000000000000000600052603260045260246000fd5b600061400682612ba2565b91507fffffffffffffffffffffffffffffffffffffffffffffffffffffffffffffffff82141561403957614038613d3e565b5b600182019050919050565b7f4e487b7100000000000000000000000000000000000000000000000000000000600052601260045260246000fd5b600061407e82612ba2565b915061408983612ba2565b92508261409957614098614044565b5b828204905092915050565b60006140af82612ba2565b91506140ba83612ba2565b9250826140ca576140c9614044565b5b828206905092915050565b600060608201905081810360008301526140ef8186612b47565b905081810360208301526141038185612b47565b90506141126040830184612f78565b949350505050565b600061412582612ba2565b915061413083612ba2565b9250817fffffffffffffffffffffffffffffffffffffffffffffffffffffffffffffffff048311821515161561416957614168613d3e565b5b828202905092915050565b7f45524337323155524953746f726167653a2055524920736574206f66206e6f6e60008201527f6578697374656e7420746f6b656e000000000000000000000000000000000000602082015250565b60006141d0602e83612af2565b91506141db82614174565b604082019050919050565b600060208201905081810360008301526141ff816141c3565b9050919050565b600081519050919050565b600082825260208201905092915050565b600061422d82614206565b6142378185614211565b9350614247818560208601612b03565b61425081612b36565b840191505092915050565b60006080820190506142706000830187612c37565b61427d6020830186612c37565b61428a6040830185612f78565b818103606083015261429c8184614222565b905095945050505050565b6000815190506142b681612a58565b92915050565b6000602082840312156142d2576142d1612a22565b5b60006142e0848285016142a7565b91505092915050565b7f4552433732313a206d696e7420746f20746865207a65726f2061646472657373600082015250565b600061431f602083612af2565b915061432a826142e9565b602082019050919050565b6000602082019050818103600083015261434e81614312565b9050919050565b7f4552433732313a20746f6b656e20616c7265616479206d696e74656400000000600082015250565b600061438b601c83612af2565b915061439682614355565b602082019050919050565b600060208201905081810360008301526143ba8161437e565b905091905056fe25732068617320736574207265636f726420666f72202225732220646f6d61696e0a2d2d2d2d2d2d2d2d2d2d2d2d2d2d2d2d2d2d2d2d2d2d2d2d2d2d2d2d2d2d2d2d2d2d2d2d2d2d2d2d2d2d2d2d2d2d2d2d2d2d2d2d2d2d2d2d2d2d2d2d2d2d2d2d2d2d2d2d2d2d2d2d2d2d2d2d2d2d2d2d2d2d2d2d2d2d2d2d2d2d2d2d2d2d2d2d2d2d2d2d2d2d2d2d2d2d2d2d2d2d2d2d0a4142434445464748494a4b4c4d4e4f505152535455565758595a6162636465666768696a6b6c6d6e6f707172737475767778797a303132333435363738392b2f5265676973746572696e67202573206f6e2074686520636f6e7472616374207769746820746f6b656e4944202564a2646970667358221220008bc8abcc37922691167d637b288b2f0c9607be4d22646174634f65c7a1863b64736f6c634300080a00333c73766720786d6c6e733d22687474703a2f2f7777772e77332e6f72672f323030302f737667222077696474683d2232373022206865696768743d22323730222066696c6c3d226e6f6e65223e3c706174682066696c6c3d2275726c282342292220643d224d302030683237307632373048307a222f3e3c646566733e3c66696c7465722069643d22412220636f6c6f722d696e746572706f6c6174696f6e2d66696c746572733d2273524742222066696c746572556e6974733d227573657253706163654f6e55736522206865696768743d22323730222077696474683d22323730223e3c666544726f70536861646f772064783d2230222064793d22312220737464446576696174696f6e3d22322220666c6f6f642d6f7061636974793d222e323235222077696474683d223230302522206865696768743d2232303025222f3e3c2f66696c7465723e3c2f646566733e3c7061746820643d224d37322e3836332034322e393439632d2e3636382d2e3338372d312e3432362d2e35392d322e3139372d2e3539732d312e3532392e3230342d322e3139372e35396c2d31302e30383120362e3033322d362e383520332e3933342d31302e30383120362e303332632d2e3636382e3338372d312e3432362e35392d322e3139372e3539732d312e3532392d2e3230342d322e3139372d2e35396c2d382e3031332d342e37323161342e353220342e35322030203020312d312e3538392d312e363136632d2e3338342d2e3636352d2e3539342d312e3431382d2e3630382d322e313837762d392e3331632d2e3031332d2e3737352e3138352d312e3533382e3537322d322e32303861342e323520342e323520302030203120312e3632352d312e3539356c372e3838342d342e3539632e3636382d2e33383720312e3432362d2e353920322e3139372d2e353973312e3532392e32303420322e3139372e35396c372e38383420342e353961342e353220342e353220302030203120312e35383920312e363136632e3338342e3636352e35393420312e3431382e36303820322e31383776362e3033326c362e38352d342e303635762d362e303332632e3031332d2e3737352d2e3138352d312e3533382d2e3537322d322e32303861342e323520342e32352030203020302d312e3632352d312e3539354c34312e3435362032342e3539632d2e3636382d2e3338372d312e3432362d2e35392d322e3139372d2e3539732d312e3532392e3230342d322e3139372e35396c2d31342e38363420382e36353561342e323520342e32352030203020302d312e36323520312e353935632d2e3338372e36372d2e35383520312e3433342d2e35373220322e3230387631372e343431632d2e3031332e3737352e31383520312e3533382e35373220322e32303861342e323520342e323520302030203020312e36323520312e3539356c31342e38363420382e363535632e3636382e33383720312e3432362e353920322e3139372e353973312e3532392d2e32303420322e3139372d2e35396c31302e3038312d352e39303120362e38352d342e3036352031302e3038312d352e393031632e3636382d2e33383720312e3432362d2e353920322e3139372d2e353973312e3532392e32303420322e3139372e35396c372e38383420342e353961342e353220342e353220302030203120312e35383920312e363136632e3338342e3636352e35393420312e3431382e36303820322e31383776392e333131632e3031332e3737352d2e31383520312e3533382d2e35373220322e32303861342e323520342e32352030203020312d312e36323520312e3539356c2d372e38383420342e373231632d2e3636382e3338372d312e3432362e35392d322e3139372e3539732d312e3532392d2e3230342d322e3139372d2e35396c2d372e3838342d342e353961342e353220342e35322030203020312d312e3538392d312e363136632d2e3338352d2e3636352d2e3539342d312e3431382d2e3630382d322e313837762d362e3033326c2d362e383520342e30363576362e303332632d2e3031332e3737352e31383520312e3533382e35373220322e32303861342e323520342e323520302030203020312e36323520312e3539356c31342e38363420382e363535632e3636382e33383720312e3432362e353920322e3139372e353973312e3532392d2e32303420322e3139372d2e35396c31342e3836342d382e363535632e3635372d2e33393420312e3230342d2e393520312e3538392d312e363136732e3539342d312e3431382e3630392d322e3138375635352e353338632e3031332d2e3737352d2e3138352d312e3533382d2e3537322d322e32303861342e323520342e32352030203020302d312e3632352d312e3539356c2d31342e3939332d382e3738367a222066696c6c3d2223666666222f3e3c646566733e3c6c696e6561724772616469656e742069643d2242222078313d2230222079313d2230222078323d22323730222079323d2232373022206772616469656e74556e6974733d227573657253706163654f6e557365223e3c73746f702073746f702d636f6c6f723d2223636235656565222f3e3c73746f70206f66667365743d2231222073746f702d636f6c6f723d2223306364376534222073746f702d6f7061636974793d222e3939222f3e3c2f6c696e6561724772616469656e743e3c2f646566733e3c7465787420783d2233322e352220793d223233312220666f6e742d73697a653d223237222066696c6c3d2223666666222066696c7465723d2275726c282341292220666f6e742d66616d696c793d22506c7573204a616b617274612053616e732c44656a6156752053616e732c4e6f746f20436f6c6f7220456d6f6a692c4170706c6520436f6c6f7220456d6f6a692c73616e732d73657269662220666f6e742d7765696768743d22626f6c64223e",
  "linkReferences": {},
  "deployedLinkReferences": {}
}